{
  "contractName": "Calculator",
  "abi": [
    {
      "inputs": [
        {
          "internalType": "int256",
          "name": "a",
          "type": "int256"
        },
        {
          "internalType": "int256",
          "name": "b",
          "type": "int256"
        }
      ],
      "name": "add",
      "outputs": [
        {
          "internalType": "int256",
          "name": "",
          "type": "int256"
        }
      ],
      "stateMutability": "pure",
      "type": "function",
      "constant": true
    },
    {
      "inputs": [
        {
          "internalType": "int256",
          "name": "a",
          "type": "int256"
        },
        {
          "internalType": "int256",
          "name": "b",
          "type": "int256"
        }
      ],
      "name": "subtract",
      "outputs": [
        {
          "internalType": "int256",
          "name": "",
          "type": "int256"
        }
      ],
      "stateMutability": "pure",
      "type": "function",
      "constant": true
    },
    {
      "inputs": [
        {
          "internalType": "int256",
          "name": "a",
          "type": "int256"
        },
        {
          "internalType": "int256",
          "name": "b",
          "type": "int256"
        }
      ],
      "name": "multiply",
      "outputs": [
        {
          "internalType": "int256",
          "name": "",
          "type": "int256"
        }
      ],
      "stateMutability": "pure",
      "type": "function",
      "constant": true
    },
    {
      "inputs": [
        {
          "internalType": "int256",
          "name": "a",
          "type": "int256"
        },
        {
          "internalType": "int256",
          "name": "b",
          "type": "int256"
        }
      ],
      "name": "divide",
      "outputs": [
        {
          "internalType": "int256",
          "name": "",
          "type": "int256"
        }
      ],
      "stateMutability": "pure",
      "type": "function",
      "constant": true
    }
  ],
  "bytecode": "0x608060405234801561001057600080fd5b506105f6806100206000396000f3fe608060405234801561001057600080fd5b506004361061004c5760003560e01c80633c4308a814610051578063a5f3c23b14610081578063b93ea812146100b1578063f5984236146100e1575b600080fd5b61006b600480360381019061006691906101c1565b610111565b604051610078919061024c565b60405180910390f35b61009b600480360381019061009691906101c1565b610127565b6040516100a8919061024c565b60405180910390f35b6100cb60048036038101906100c691906101c1565b61013d565b6040516100d8919061024c565b60405180910390f35b6100fb60048036038101906100f691906101c1565b610153565b604051610108919061024c565b60405180910390f35b6000818361011f9190610396565b905092915050565b600081836101359190610298565b905092915050565b6000818361014b91906104ad565b905092915050565b600080821415610198576040517f08c379a000000000000000000000000000000000000000000000000000000000815260040161018f90610267565b60405180910390fd5b81836101a4919061032c565b905092915050565b6000813590506101bb816105a9565b92915050565b600080604083850312156101d457600080fd5b60006101e2858286016101ac565b92505060206101f3858286016101ac565b9150509250929050565b61020681610541565b82525050565b6000610219601083610287565b91507f4469766973696f6e206279207a65726f000000000000000000000000000000006000830152602082019050919050565b600060208201905061026160008301846101fd565b92915050565b600060208201905081810360008301526102808161020c565b9050919050565b600082825260208201905092915050565b60006102a382610541565b91506102ae83610541565b9250817f7fffffffffffffffffffffffffffffffffffffffffffffffffffffffffffffff038313600083121516156102e9576102e861054b565b5b817f80000000000000000000000000000000000000000000000000000000000000000383126000831216156103215761032061054b565b5b828201905092915050565b600061033782610541565b915061034283610541565b9250826103525761035161057a565b5b600160000383147f80000000000000000000000000000000000000000000000000000000000000008314161561038b5761038a61054b565b5b828205905092915050565b60006103a182610541565b91506103ac83610541565b9250827f7fffffffffffffffffffffffffffffffffffffffffffffffffffffffffffffff04821160008413600084131616156103eb576103ea61054b565b5b817f800000000000000000000000000000000000000000000000000000000000000005831260008412600084131616156104285761042761054b565b5b827f800000000000000000000000000000000000000000000000000000000000000005821260008413600084121616156104655761046461054b565b5b827f7fffffffffffffffffffffffffffffffffffffffffffffffffffffffffffffff05821260008412600084121616156104a2576104a161054b565b5b828202905092915050565b60006104b882610541565b91506104c383610541565b9250827f8000000000000000000000000000000000000000000000000000000000000000018212600084121516156104fe576104fd61054b565b5b827f7fffffffffffffffffffffffffffffffffffffffffffffffffffffffffffffff0182136000841216156105365761053561054b565b5b828203905092915050565b6000819050919050565b7f4e487b7100000000000000000000000000000000000000000000000000000000600052601160045260246000fd5b7f4e487b7100000000000000000000000000000000000000000000000000000000600052601260045260246000fd5b6105b281610541565b81146105bd57600080fd5b5056fea26469706673582212206c4c06c302cfc70581cc0dfe340cf614cd53e5ab7bb5e356f6f84f6bba61707e64736f6c63430008000033",
  "immutableReferences": {},
  "source": "// SPDX-License-Identifier: MIT\npragma solidity >=0.4.22 <0.9.0;\n\ncontract Calculator {\n    function add(int256 a, int256 b) public pure returns (int256) {\n        return a + b;\n    }\n\n    function subtract(int256 a, int256 b) public pure returns (int256) {\n        return a - b;\n    }\n\n    function multiply(int256 a, int256 b) public pure returns (int256) {\n        return a * b;\n    }\n\n    function divide(int256 a, int256 b) public pure returns (int256) {\n        require(b != 0, \"Division by zero\");\n        return a / b;\n    }\n}\n",
  "sourcePath": "/home/moise/Documents/projects/web3-smartcontract/term3/calculatorDapp/contracts/Calculator.sol",
  "compiler": {
    "name": "solc",
    "version": "0.8.0+commit.c7dfd78e.Emscripten.clang"
  },
  "schemaVersion": "3.4.16",
  "updatedAt": "2026-06-15T14:18:43.189Z",
  "networkType": "ethereum",
  "devdoc": {
    "kind": "dev",
    "methods": {},
    "version": 1
  },
  "userdoc": {
    "kind": "user",
    "methods": {},
    "version": 1
  }
}