{
  "contractName": "Voting",
  "abi": [
    {
      "inputs": [],
      "stateMutability": "nonpayable",
      "type": "constructor"
    },
    {
      "anonymous": false,
      "inputs": [
        {
          "indexed": true,
          "internalType": "uint256",
          "name": "candidateId",
          "type": "uint256"
        },
        {
          "indexed": false,
          "internalType": "string",
          "name": "name",
          "type": "string"
        }
      ],
      "name": "candidateAdded",
      "type": "event"
    },
    {
      "anonymous": false,
      "inputs": [
        {
          "indexed": true,
          "internalType": "uint256",
          "name": "candidateId",
          "type": "uint256"
        }
      ],
      "name": "votedEvent",
      "type": "event"
    },
    {
      "inputs": [
        {
          "internalType": "uint256",
          "name": "",
          "type": "uint256"
        }
      ],
      "name": "candidates",
      "outputs": [
        {
          "internalType": "uint256",
          "name": "id",
          "type": "uint256"
        },
        {
          "internalType": "string",
          "name": "name",
          "type": "string"
        },
        {
          "internalType": "uint256",
          "name": "voteCount",
          "type": "uint256"
        }
      ],
      "stateMutability": "view",
      "type": "function",
      "constant": true
    },
    {
      "inputs": [],
      "name": "candidatesCount",
      "outputs": [
        {
          "internalType": "uint256",
          "name": "",
          "type": "uint256"
        }
      ],
      "stateMutability": "view",
      "type": "function",
      "constant": true
    },
    {
      "inputs": [],
      "name": "owner",
      "outputs": [
        {
          "internalType": "address",
          "name": "",
          "type": "address"
        }
      ],
      "stateMutability": "view",
      "type": "function",
      "constant": true
    },
    {
      "inputs": [
        {
          "internalType": "address",
          "name": "",
          "type": "address"
        }
      ],
      "name": "voters",
      "outputs": [
        {
          "internalType": "bool",
          "name": "",
          "type": "bool"
        }
      ],
      "stateMutability": "view",
      "type": "function",
      "constant": true
    },
    {
      "inputs": [
        {
          "internalType": "string",
          "name": "_name",
          "type": "string"
        }
      ],
      "name": "addCandidate",
      "outputs": [],
      "stateMutability": "nonpayable",
      "type": "function"
    },
    {
      "inputs": [
        {
          "internalType": "uint256",
          "name": "_candidateId",
          "type": "uint256"
        }
      ],
      "name": "vote",
      "outputs": [],
      "stateMutability": "nonpayable",
      "type": "function"
    }
  ],
  "bytecode": "0x60806040523480156200001157600080fd5b5033600360006101000a81548173ffffffffffffffffffffffffffffffffffffffff021916908373ffffffffffffffffffffffffffffffffffffffff160217905550620000996040518060400160405280600481526020017f52616d61000000000000000000000000000000000000000000000000000000008152506200012b60201b60201c565b620000df6040518060400160405280600481526020017f4e69636b000000000000000000000000000000000000000000000000000000008152506200012b60201b60201c565b620001256040518060400160405280600481526020017f4a6f7365000000000000000000000000000000000000000000000000000000008152506200012b60201b60201c565b62000547565b600360009054906101000a900473ffffffffffffffffffffffffffffffffffffffff1673ffffffffffffffffffffffffffffffffffffffff163373ffffffffffffffffffffffffffffffffffffffff1614620001be576040517f08c379a0000000000000000000000000000000000000000000000000000000008152600401620001b590620003d6565b60405180910390fd5b60026000815480929190620001d3906200048a565b91905055506040518060600160405280600254815260200182815260200160008152506000806002548152602001908152602001600020600082015181600001556020820151816001019080519060200190620002329291906200027f565b50604082015181600201559050506002547f4e533c53f778a27389df73e6c2093f620b89f32beda6edc0a994be6ab49e7cce82604051620002749190620003b2565b60405180910390a250565b8280546200028d9062000454565b90600052602060002090601f016020900481019282620002b15760008555620002fd565b82601f10620002cc57805160ff1916838001178555620002fd565b82800160010185558215620002fd579182015b82811115620002fc578251825591602001919060010190620002df565b5b5090506200030c919062000310565b5090565b5b808211156200032b57600081600090555060010162000311565b5090565b60006200033c82620003f8565b62000348818562000403565b93506200035a8185602086016200041e565b620003658162000536565b840191505092915050565b60006200037f601d8362000403565b91507f4f6e6c79206f776e65722063616e206164642063616e646964617465730000006000830152602082019050919050565b60006020820190508181036000830152620003ce81846200032f565b905092915050565b60006020820190508181036000830152620003f18162000370565b9050919050565b600081519050919050565b600082825260208201905092915050565b6000819050919050565b60005b838110156200043e57808201518184015260208101905062000421565b838111156200044e576000848401525b50505050565b600060028204905060018216806200046d57607f821691505b6020821081141562000484576200048362000507565b5b50919050565b6000620004978262000414565b91507fffffffffffffffffffffffffffffffffffffffffffffffffffffffffffffffff821415620004cd57620004cc620004d8565b5b600182019050919050565b7f4e487b7100000000000000000000000000000000000000000000000000000000600052601160045260246000fd5b7f4e487b7100000000000000000000000000000000000000000000000000000000600052602260045260246000fd5b6000601f19601f8301169050919050565b610b9980620005576000396000f3fe608060405234801561001057600080fd5b50600436106100625760003560e01c80630121b93f146100675780632d35a8a2146100835780633477ee2e146100a1578063462e91ec146100d35780638da5cb5b146100ef578063a3ec138d1461010d575b600080fd5b610081600480360381019061007c91906106b5565b61013d565b005b61008b6102cd565b60405161009891906108bc565b60405180910390f35b6100bb60048036038101906100b691906106b5565b6102d3565b6040516100ca939291906108d7565b60405180910390f35b6100ed60048036038101906100e89190610674565b610385565b005b6100f76104d0565b6040516101049190610804565b60405180910390f35b6101276004803603810190610122919061064b565b6104f6565b604051610134919061081f565b60405180910390f35b600160003373ffffffffffffffffffffffffffffffffffffffff1673ffffffffffffffffffffffffffffffffffffffff16815260200190815260200160002060009054906101000a900460ff16156101ca576040517f08c379a00000000000000000000000000000000000000000000000000000000081526004016101c19061085c565b60405180910390fd5b6000811180156101dc57506002548111155b61021b576040517f08c379a00000000000000000000000000000000000000000000000000000000081526004016102129061087c565b60405180910390fd5b60018060003373ffffffffffffffffffffffffffffffffffffffff1673ffffffffffffffffffffffffffffffffffffffff16815260200190815260200160002060006101000a81548160ff021916908315150217905550600080828152602001908152602001600020600201600081548092919061029890610a4e565b9190505550807ffff3c900d938d21d0990d786e819f29b8d05c1ef587b462b939609625b684b1660405160405180910390a250565b60025481565b60006020528060005260406000206000915090508060000154908060010180546102fc90610a1c565b80601f016020809104026020016040519081016040528092919081815260200182805461032890610a1c565b80156103755780601f1061034a57610100808354040283529160200191610375565b820191906000526020600020905b81548152906001019060200180831161035857829003601f168201915b5050505050908060020154905083565b600360009054906101000a900473ffffffffffffffffffffffffffffffffffffffff1673ffffffffffffffffffffffffffffffffffffffff163373ffffffffffffffffffffffffffffffffffffffff1614610415576040517f08c379a000000000000000000000000000000000000000000000000000000000815260040161040c9061089c565b60405180910390fd5b6002600081548092919061042890610a4e565b91905055506040518060600160405280600254815260200182815260200160008152506000806002548152602001908152602001600020600082015181600001556020820151816001019080519060200190610485929190610516565b50604082015181600201559050506002547f4e533c53f778a27389df73e6c2093f620b89f32beda6edc0a994be6ab49e7cce826040516104c5919061083a565b60405180910390a250565b600360009054906101000a900473ffffffffffffffffffffffffffffffffffffffff1681565b60016020528060005260406000206000915054906101000a900460ff1681565b82805461052290610a1c565b90600052602060002090601f016020900481019282610544576000855561058b565b82601f1061055d57805160ff191683800117855561058b565b8280016001018555821561058b579182015b8281111561058a57825182559160200191906001019061056f565b5b509050610598919061059c565b5090565b5b808211156105b557600081600090555060010161059d565b5090565b60006105cc6105c784610946565b610915565b9050828152602081018484840111156105e457600080fd5b6105ef8482856109da565b509392505050565b60008135905061060681610b35565b92915050565b600082601f83011261061d57600080fd5b813561062d8482602086016105b9565b91505092915050565b60008135905061064581610b4c565b92915050565b60006020828403121561065d57600080fd5b600061066b848285016105f7565b91505092915050565b60006020828403121561068657600080fd5b600082013567ffffffffffffffff8111156106a057600080fd5b6106ac8482850161060c565b91505092915050565b6000602082840312156106c757600080fd5b60006106d584828501610636565b91505092915050565b6106e781610992565b82525050565b6106f6816109a4565b82525050565b600061070782610976565b6107118185610981565b93506107218185602086016109e9565b61072a81610b24565b840191505092915050565b6000610742600e83610981565b91507f416c726561647920766f7465642e0000000000000000000000000000000000006000830152602082019050919050565b6000610782601183610981565b91507f496e76616c69642063616e6469646174650000000000000000000000000000006000830152602082019050919050565b60006107c2601d83610981565b91507f4f6e6c79206f776e65722063616e206164642063616e646964617465730000006000830152602082019050919050565b6107fe816109d0565b82525050565b600060208201905061081960008301846106de565b92915050565b600060208201905061083460008301846106ed565b92915050565b6000602082019050818103600083015261085481846106fc565b905092915050565b6000602082019050818103600083015261087581610735565b9050919050565b6000602082019050818103600083015261089581610775565b9050919050565b600060208201905081810360008301526108b5816107b5565b9050919050565b60006020820190506108d160008301846107f5565b92915050565b60006060820190506108ec60008301866107f5565b81810360208301526108fe81856106fc565b905061090d60408301846107f5565b949350505050565b6000604051905081810181811067ffffffffffffffff8211171561093c5761093b610af5565b5b8060405250919050565b600067ffffffffffffffff82111561096157610960610af5565b5b601f19601f8301169050602081019050919050565b600081519050919050565b600082825260208201905092915050565b600061099d826109b0565b9050919050565b60008115159050919050565b600073ffffffffffffffffffffffffffffffffffffffff82169050919050565b6000819050919050565b82818337600083830152505050565b60005b83811015610a075780820151818401526020810190506109ec565b83811115610a16576000848401525b50505050565b60006002820490506001821680610a3457607f821691505b60208210811415610a4857610a47610ac6565b5b50919050565b6000610a59826109d0565b91507fffffffffffffffffffffffffffffffffffffffffffffffffffffffffffffffff821415610a8c57610a8b610a97565b5b600182019050919050565b7f4e487b7100000000000000000000000000000000000000000000000000000000600052601160045260246000fd5b7f4e487b7100000000000000000000000000000000000000000000000000000000600052602260045260246000fd5b7f4e487b7100000000000000000000000000000000000000000000000000000000600052604160045260246000fd5b6000601f19601f8301169050919050565b610b3e81610992565b8114610b4957600080fd5b50565b610b55816109d0565b8114610b6057600080fd5b5056fea26469706673582212209981838dd1c47763b76325cd1170d06e896b48adad28ed4eb8e9b5bc12d90ff564736f6c63430008000033",
  "immutableReferences": {},
  "source": "// SPDX-License-Identifier: MIT\npragma solidity >=0.4.22 <0.9.0;\n\ncontract Voting {\n    struct Candidate {\n        uint id;\n        string name;\n        uint voteCount;\n    }\n\n    mapping(uint => Candidate) public candidates;\n    mapping(address => bool) public voters;\n\n    uint public candidatesCount;\n    address public owner;\n\n    event votedEvent(uint indexed candidateId);\n    event candidateAdded(uint indexed candidateId, string name);\n\n    constructor() {\n        owner = msg.sender;\n        addCandidate(\"Rama\");\n        addCandidate(\"Nick\");\n        addCandidate(\"Jose\");\n    }\n\n    function addCandidate(string memory _name) public {\n        require(msg.sender == owner, \"Only owner can add candidates\");\n        candidatesCount++;\n        candidates[candidatesCount] = Candidate(candidatesCount, _name, 0);\n        emit candidateAdded(candidatesCount, _name);\n    }\n\n    function vote(uint _candidateId) public {\n        require(!voters[msg.sender], \"Already voted.\");\n        require(\n            _candidateId > 0 && _candidateId <= candidatesCount,\n            \"Invalid candidate\"\n        );\n\n        voters[msg.sender] = true;\n        candidates[_candidateId].voteCount++;\n\n        emit votedEvent(_candidateId);\n    }\n}\n",
  "sourcePath": "/home/moise/Documents/projects/web3-smartcontract/term3/VotingDApp-main/contracts/Voting.sol",
  "compiler": {
    "name": "solc",
    "version": "0.8.0+commit.c7dfd78e.Emscripten.clang"
  },
  "schemaVersion": "3.4.16",
  "updatedAt": "2026-06-15T12:58:26.569Z",
  "networkType": "ethereum",
  "devdoc": {
    "kind": "dev",
    "methods": {},
    "version": 1
  },
  "userdoc": {
    "kind": "user",
    "methods": {},
    "version": 1
  }
}